S015000052585F36345F43617073746F6E2E7372656365
S113000045C0000061C000005FC000005DC000008A
S11300105BC000005FC0000057C0000055C0000076
S113002053C0000051C000004FC000004DC000008C
S11300304BC0000049C0000047C0000045C000009C
S113004043C0000041C000002CC400003DC00000BB
S11300503BC0000039C0000037C0000035C00000BC
S113006033C0000031C000002FC000002DC00000CC
S11300702BC0000029C0000027C0000025C00000DC
S113008023C0000021C000001FC0000011241FBEB7
S1130090CFEFD0E1DEBFCDBF11E0A0E0B1E0ECEAEC
S11300A0F1E100E00BBF02C007900D92AC35B1073F
S11300B0D9F722E0ACE5B1E001C01D92A836B20741
S11300C0E1F727D00C94D4089BCF82E08ABF80E16B
S11300D089BF08951F920F920FB60F9211242F9388
S11300E08F939F9381E090E090935D0180935C01F6
S11300F02FEF81EE94E0215080409040E1F700C062
S113010000009F918F912F910F900FBE0F901F9021
S11301101895CF93DF93CDB7DEB7EE970FB6F8946B
S1130120DEBF0FBECDBF8FEF81BB7894CEDF60E022
S113013072EC81E090E0C7D381E090E05DD243E0CF
S113014042B98FE08ABB2FEF87EA91E621508040C5
S11301509040E1F700C000001F9232E33F931F92EA
S113016026E92F931F9290E29F931F9281E08F9331
S11301701F928F931F9255E05F931F923F931F929C
S11301802F931F929F931F928F931F928F931F926F
S113019054E05F931F923F931F922F931F929F935C
S11301A01F928F931F928F931F924F931F923F938F
S11301B01F922F931F929F9388248394912CAA2497
S11301C0A394B12C6894CC24C1F8D12C0F2EF2E363
S11301D0EF2EF12CF02D06E910E020E230E041E0B2
S11301E050E061E070E081E090E01CD2AFEFB7EA4C
S11301F0E1E6A150B040E040E1F700C000000FB6D6
S1130200F894DEBF0FBECDBF0F2EF4E67F2EF02D87
S11302100F2EFCE22F2E33243394F02D0F2EF2E315
S11302205F2EF02D6894442445F866246394DE011F
S11302305F96BEAFADAF68E170E0CE0101967BD3AF
S1130240892BC9F34A8150E040535109749EC0017F
S1130250759E900D11242B8130E020533109A901A2
S1130260440F551F220F331F220F331F220F331F3A
S1130270240F351F820F931F2C81820F911D8452EE
S113028092409C8F8B8F6E8570E060537109769ECF
S11302909001779E300D11244F8550E04053510951
S11302A0BA01660F771F440F551F440F551F440FA3
S11302B0551F460F571F240F351F4889240F311D22
S11302C0245232403E8F2D8F6E8170E0605371094D
S11302D0769EA001779E500D11246F8170E06053CB
S11302E07109FB01EE0FFF1F660F771F660F771F63
S11302F0660F771F6E0F7F1F460F571F6885460FC7
S1130300511D445252405AA349A3EA89F0E0F097A0
S11303107E9EB0017F9E700D1124EB89F0E0F09772
S1130320DF01AA0FBB1FEE0FFF1FEE0FFF1FEE0F23
S1130330FF1FEA0FFB1F6E0F7F1FEC896E0F711DED
S1130340645272407CA36BA3EA85F0E0F0977E9E32
S113035080017F9E100D1124AB85B0E0D097FD0184
S1130360EE0FFF1FAA0FBB1FAA0FBB1FAA0FBB1FB5
S1130370AE0FBF1FF801EA0FFB1FAC85EA0FF11D9A
S1130380E452F240F8A7EFA3AE89B0E0D0977A9E8A
S113039070017B9EF00C1124AF89B0E0D0978D01E1
S11303A0000F111FAA0FBB1FAA0FBB1FAA0FBB1F51
S11303B0A00FB11FAE0DBF1D188DA10FB11DA4520A
S11303C0B240BAA7A9A700915C0110915D01012B6D
S11303D009F40BC1FE017996BE01655D7F4FAE0144
S11303E0415E5F4F9E012F5C3F4FCE018596DE013B
S11303F0D7967D0101911191DB010D931D93BD01F0
S1130400DA010D911D91AD01D9010D931D939D014B
S1130410DC010D911D91CD01D7010D931D937D013B
S1130420ADADBEADEA17FB0729F710925D0110923E
S11304305C0181E090E090935F0180935E019E01F6
S1130440275E3F4FBE01635D7F4FDE015F967E01F5
S1130450E3E3EE0EF11CFE01B5966E0189E3C80ECE
S1130460D11C42E050E05F01FB0101911191BF01F9
S1130470F90182819381801B910B8A569F4F93834C
S11304808283F701019111917F0112968D919C91C4
S11304901397801B910B8A569F4F13969C938E93B0
S11304A01297F601019111916F01F50182819381F7
S11304B0801B910B8A569F4F93838283415051092D
S11304C02E5F3F4F1296F2E0AF0EB11C411551055D
S11304D059F68BA19CA17101E81AF90A8D8D9E8DA4
S11304E08101081B190B8AA58F9389A58F93FF920D
S11304F0EF921F930F9388A58F938FA18F9389A158
S11305009AA19195819591099F938F938B8D9C8D41
S11305109195819591099F938F938EE091E09F939C
S11305208F9382D31F925F921F92B6E9BF931F925B
S11305304F921F926F921F926F921F92E5E0EF937A
S11305401F925F921F92BF931F924F921F926F92BE
S11305501F926F921F92F4E0FF931F925F921F927B
S1130560BF931F924F921F926F921F926F921F928E
S113057023E02F931F925F92FF92EF921F924F926C
S113058088248394912CAA24A394B12C6894CC2419
S1130590C1F8D12C0F2EF2E3EF2EF12CF02D20E236
S11305A030E041E050E061E070E081E090E03AD07A
S11305B00FB6F894DEBF0FBECDBF3DCEBF93AF9351
S11305C07F936F933F932F93FF93EF935F934F9397
S11305D09F938F93AEE0B1E0BF93AF9325D30FB653
S11305E0F894DEBF0FBECDBF26CE00915E01109100
S11305F05F01012B19F323CF909398008093990006
S113060082E080939B0088E180939A0086E0809347
S11306109D000895EBE9F0E0908195FFFDCF809374
S11306209C0008952F923F924F925F926F927F9217
S11306308F929F92AF92BF92CF92DF92EF92FF92EE
S11306400F931F93CF93DF9300D01F92CDB7DEB7E4
S1130650C42ED22EB801188D6A8C7B8C4EA438A877
S11306608AAD89830CAD80E090E0CBD121E73DE3F6
S11306704AE550E42CD299D1B62E7A83B30180E0B6
S113068090E0BFD121E73DE34AE550E420D28DD18B
S11306906B83A72E6CE271E06619770980E090E025
S11306A0B0D121E73DE34AE550E411D27ED1762E64
S11306B0672E6AA97BA980E090E0A3D121E73DE3FE
S11306C04AE550E404D271D1962E572E6EAD7FAD1B
S11306D080E090E096D121E73DE34AE550E4F7D18C
S11306E064D122962EAD3FAD2297220F331F220FE5
S11306F0331F220F331F2296EEADFFAD22972E0F2C
S11307003F1F4CA95DA9440F551F440F551F440FAB
S1130710551F8CA99DA9480F591F8C8D9D8D880F3D
S1130720991F880F991F880F991FEC8DFD8D8E0FCF
S11307309F1FD701AA0FBB1FAA0FBB1FAA0FBB1F66
S1130740AE0DBF1DE1EEF1E022242A942082218225
S11307500F2EFEEF2F2EF02D22820F2EF1E32F2EDF
S1130760F02D23820F2EF3E82F2EF02D24820F2E4E
S1130770FAE12F2EF02D25826894222423F8268274
S1130780222423942782C086C186D286D386B48647
S1130790FA80F586A687B787A2E0A08B818A828A31
S11307A0138B148BFB80F58AA68A878B908FA3E02A
S11307B0A18F828E838E148F158F768E678E80A381
S11307C091A384E082A343A244A235A236A297A2B5
S11307D050A641A752A785E083A7F980F4A6F5A601
S11307E006A707A760AB71AB22AB33ABE3EEF1E036
S11307F045E152E080E090E02191820F911DE417E1
S1130800F507D1F7809580931502949A8FE99FE0BC
S11308100197F1F700C0000001EE11E00F2EF6E1A0
S1130820CF2EF2E0DF2EF02D0F2EFBE9EF2EF12C70
S1130830F02DF701808180648083F80181918F011C
S1130840E9DE0C151D05A9F7EBE9F0E0808186FFD0
S1130850FDCF94988FE99FE00197F1F700C0000065
S11308600F900F900F90DF91CF911F910F91FF90F8
S1130870EF90DF90CF90BF90AF909F908F907F903C
S11308806F905F904F903F902F900895CF93C82F13
S11308908A3011F48DE0FADF5D9BFECFCCB9CF91A5
S11308A008951F920F920FB60F9211248F938CB15B
S11308B08093610281E0809360018F910F900FBE5D
S11308C00F901F901895DC01CB01880F991FAA1F68
S11308D0BB1F880F991FAA1FBB1F9C01AD01220FCC
S11308E0331F441F551F60E074E284EF90E07AD117
S11308F0215031093093900029B982E08BB988E9FD
S11309008AB986E08093950080E091E09093650237
S1130910809364020895FC0190916001992341F051
S11309208091610280831092600181E090E00895DB
S113093080E090E008950F931F93CF93DF938C0191
S1130940EC0180E090E0E7DF892BD9F3809100008F
S113095089938A30B1F7F8018081833799F48481CF
S11309608C3299F480858C3299F484858C3299F494
S113097080898C3299F481E090E024892C3281F0D2
S113098080E00EC080E090E00BC080E090E008C002
S113099080E090E005C080E090E002C080E090E05C
S11309A0DF91CF911F910F91089570D088F09F57D8
S11309B090F0B92F9927B751A0F0D1F0660F771FA7
S11309C0881F991F1AF0BA95C9F712C0B13081F087
S11309D077D0B1E0089574C0672F782F8827B85F67
S11309E039F0B93FCCF3869577956795B395D9F7E8
S11309F03EF490958095709561957F4F8F4F9F4FF2
S1130A000895E89409C097FB3EF4909580957095FD
S1130A1061957F4F8F4F9F4F9923A9F0F92F96E946
S1130A20BB279395F695879577956795B795F111BB
S1130A30F8CFFAF4BB0F11F460FF1BC06F5F7F4F58
S1130A408F4F9F4F16C0882311F096E911C077236A
S1130A5021F09EE8872F762F05C0662371F096E873
S1130A60862F70E060E02AF09A95660F771F881F42
S1130A70DAF7880F9695879597F9089557FD90585A
S1130A80440F551F59F05F3F71F04795880F97FB4E
S1130A90991F61F09F3F79F0879508951216130608
S1130AA01406551FF2CF4695F1DF08C01616170637
S1130AB01806991FF1CF869571056105089408956C
S1130AC0E894BB2766277727CB0197F908950BD0C5
S1130AD078C069D028F06ED018F0952309F05AC078
S1130AE05FC01124EECFCADFA0F3959FD1F3950F19
S1130AF050E0551F629FF001729FBB27F00DB11D9E
S1130B00639FAA27F00DB11DAA1F649F6627B00D2D
S1130B10A11D661F829F2227B00DA11D621F739F16
S1130B20B00DA11D621F839FA00D611D221F749F24
S1130B303327A00D611D231F849F600D211D822F6B
S1130B40762F6A2F11249F5750408AF0E1F08823B2
S1130B504AF0EE0FFF1FBB1F661F771F881F9150BF
S1130B605040A9F79E3F510570F014C0AACF5F3FD3
S1130B70ECF3983EDCF3869577956795B795F795F2
S1130B80E7959F5FC1F7FE2B880F911D969587957A
S1130B9097F9089597F99F6780E870E060E00895F9
S1130BA09FEF80EC089500240A9416161706180681
S1130BB00906089500240A9412161306140605065D
S1130BC00895092E0394000C11F4882352F0BB0FEE
S1130BD040F4BF2B11F460FF04C06F5F7F4F8F4F51
S1130BE09F4F0895A1E21A2EAA1BBB1BFD010DC045
S1130BF0AA1FBB1FEE1FFF1FA217B307E407F507C9
S1130C0020F0A21BB30BE40BF50B661F771F881FA4
S1130C10991F1A9469F760957095809590959B013A
S1130C20AC01BD01CF010895CF93DF93CDB7DEB7FB
S1130C30AE014B5F5F4FFA0161917191AF018091F9
S1130C4064029091650203D0DF91CF9108952F92B1
S1130C503F924F925F926F927F928F929F92AF9248
S1130C60BF92CF92DF92EF92FF920F931F93CF9395
S1130C70DF93CDB7DEB72B970FB6F894DEBF0FBE68
S1130C80CDBF6C017B018A01FC011782168283812E
S1130C9081FFBFC1CE0101963C01F6019381F701AA
S1130CA093FD859193FF81917F01882309F4ADC160
S1130CB0853239F493FD859193FF81917F018532CB
S1130CC021F4B60190E0D6D1E8CF912C212C312C1F
S1130CD0FFE1F315D8F08B3279F038F4803279F0F3
S1130CE08332A1F4232D20611DC08D3261F0803345
S1130CF069F4232D216016C0832D8260382EE32DE4
S1130D00E4603E2E2AC0F32DF8601DC037FC2DC0D0
S1130D1020ED280F2A3040F08E32B9F436FC75C12C
S1130D20232D2064322E19C036FE06C08AE0989E18
S1130D30200D1124922E11C0EAE02E9E200D1124C4
S1130D40222EF32DF0623F2E08C08C3621F4832D21
S1130D508068382E02C0883641F4F70193FD8591EE
S1130D6093FF81917F018111B3CF982F9F7D95547B
S1130D70933028F40C5F1F4F9FE399830DC0833693
S1130D8031F0833771F0833509F055C020C0F80184
S1130D90808189830E5F1F4F88248394912C530193
S1130DA012C02801F2E04F0E511CF801A080B1805E
S1130DB036FE03C0692D70E002C06FEF7FEFC501FE
S1130DC04ED14C018201F32DFF773F2E15C028012F
S1130DD022E0420E511CF801A080B18036FE03C00F
S1130DE0692D70E002C06FEF7FEFC5012DD14C017A
S1130DF0F32DF0683F2E820133FC19C0822D90E060
S1130E0088169906A0F4B60180E290E033D12A94C2
S1130E10F5CFF50137FC859137FE81915F01B6016D
S1130E2090E028D121102A9421E0821A910881149B
S1130E30910479F7E1C0843611F0893639F5F80167
S1130E4037FE07C060817181828193810C5F1F4FDF
S1130E5008C060817181072E000C880B990B0E5F0E
S1130E601F4FF32DFF763F2E97FF09C09095809575
S1130E70709561957F4F8F4F9F4FF0683F2E2AE00A
S1130E8030E0A30133D1882E861844C0853731F46D
S1130E90232D2F7EB22E2AE030E025C0932D997F9A
S1130EA0B92E8F36C1F018F4883579F0AEC080378A
S1130EB019F0883721F0A9C0E92FE061BE2EB4FEF5
S1130EC00DC0FB2DF460BF2E09C034FE0AC0292FCB
S1130ED02660B22E06C028E030E005C020E130E0F4
S1130EE002C020E132E0F801B7FE07C060817181E1
S1130EF0828193810C5F1F4F06C06081718180E005
S1130F0090E00E5F1F4FA301F1D0882E8618FB2DB1
S1130F10FF773F2E36FE0DC0232D2E7FA22E89147F
S1130F2058F434FE0BC032FC09C0832D8E7EA82EEB
S1130F3005C0B82CA32C03C0B82C01C0B92CA4FE46
S1130F400FC0FE01E80DF11D8081803321F49A2D3C
S1130F50997EA92E09C0A2FE06C0B394B39404C01E
S1130F608A2D867809F0B394A3FC10C0A0FE06C0B5
S1130F70B21480F4280C922C9B180DC0B21458F4AF
S1130F80B60180E290E076D0B394F8CFB21418F4AE
S1130F902B1802C0982C212CA4FE0FC0B60180E3AC
S1130FA090E068D0A2FE16C0A1FC03C088E790E0E0
S1130FB002C088E590E0B6010CC08A2D867851F015
S1130FC0A1FE02C08BE201C080E2A7FC8DE2B60163
S1130FD090E050D0891430F4B60180E390E04AD018
S1130FE09A94F8CF8A94F301E80DF11D8081B6013B
S1130FF090E040D08110F6CF222009F44ECEB60105
S113100080E290E037D02A94F7CFF6018681978169
S113101002C08FEF9FEF2B960FB6F894DEBF0FBE82
S1131020CDBFDF91CF911F910F91FF90EF90DF9093
S1131030CF90BF90AF909F908F907F906F905F9074
S11310404F903F902F900895FC010590615070409F
S11310500110D8F7809590958E0F9F1F0895FC017D
S11310606150704001900110D8F7809590958E0FD3
S11310709F1F08950F931F93CF93DF93FB01238149
S113108021FD03C08FEF9FEF2CC022FF16C04681C5
S11310905781248135814217530744F4A081B181DB
S11310A09D012F5F3F4F318320838C9326813781AD
S11310B02F5F3F4F3783268314C08B01EC01FB0164
S11310C00084F185E02D0995892BE1F6D801169667
S11310D08D919C911797019617969C938E931697D2
S11310E0CE01DF91CF911F910F910895FA01AA27A4
S11310F0283051F1203181F1E8946F936E7F6E5F57
S11311007F4F8F4F9F4FAF4FB1E03ED0B4E03CD004
S1131110670F781F891F9A1FA11D680F791F8A1FE7
S1131120911DA11D6A0F711D811D911DA11D20D04E
S113113009F468943F912AE0269F11243019305D08
S11311403193DEF6CF010895462F4770405D4193F9
S1131150B3E00FD0C9F7F6CF462F4F70405D4A3346
S113116018F0495D31FD4052419302D0A9F7EACF0E
S1131170B4E0A6959795879577956795BA95C9F73D
S113118000976105710508959B01AC010A2E069430
S11311905795479537952795BA95C9F7620F731FE9
S10F11A0841F951FA01D0895F894FFCF34
S11311AC0000000200000000460400000000596129
S11311BC775F31203D2025642C2050697463685F6F
S11311CC31203D2025642C20526F6C6C5F31203D06
S11311DC2025642C205961775F32203D2025642C16
S11311EC2050697463685F32203D2025642C2052A2
S10F11FC6F6C6C5F32203D2025640A00FB
S903015E9D
